{
  "_format": "hh-sol-artifact-1",
  "contractName": "CertificateRegistry",
  "sourceName": "blockchain/CertificateRegistry.sol",
  "abi": [
    {
      "anonymous": false,
      "inputs": [
        {
          "indexed": true,
          "internalType": "string",
          "name": "certificateHash",
          "type": "string"
        },
        {
          "indexed": false,
          "internalType": "uint256",
          "name": "timestamp",
          "type": "uint256"
        }
      ],
      "name": "CertificateStored",
      "type": "event"
    },
    {
      "inputs": [
        {
          "internalType": "string",
          "name": "certificateHash",
          "type": "string"
        }
      ],
      "name": "getCertificate",
      "outputs": [
        {
          "internalType": "string",
          "name": "",
          "type": "string"
        },
        {
          "internalType": "uint256",
          "name": "",
          "type": "uint256"
        },
        {
          "internalType": "bool",
          "name": "",
          "type": "bool"
        }
      ],
      "stateMutability": "view",
      "type": "function"
    },
    {
      "inputs": [
        {
          "internalType": "string",
          "name": "certificateHash",
          "type": "string"
        }
      ],
      "name": "storeCertificate",
      "outputs": [
        {
          "internalType": "bool",
          "name": "",
          "type": "bool"
        }
      ],
      "stateMutability": "nonpayable",
      "type": "function"
    },
    {
      "inputs": [
        {
          "internalType": "string",
          "name": "certificateHash",
          "type": "string"
        }
      ],
      "name": "verifyCertificate",
      "outputs": [
        {
          "internalType": "bool",
          "name": "exists",
          "type": "bool"
        },
        {
          "internalType": "uint256",
          "name": "timestamp",
          "type": "uint256"
        }
      ],
      "stateMutability": "view",
      "type": "function"
    }
  ],
  "bytecode": "0x608060405234801561001057600080fd5b50610b93806100206000396000f3fe608060405234801561001057600080fd5b50600436106100415760003560e01c80638b23d87514610046578063aaf4004014610077578063ed0f2e75146100a7575b600080fd5b610060600480360381019061005b91906105bb565b6100d9565b60405161006e929190610638565b60405180910390f35b610091600480360381019061008c91906105bb565b6101d3565b60405161009e9190610661565b60405180910390f35b6100c160048036038101906100bc91906105bb565b61035c565b6040516100d0939291906106fb565b60405180910390f35b600080600080846040516100ed9190610775565b9081526020016040518091039020604051806060016040529081600082018054610116906107bb565b80601f0160208091040260200160405190810160405280929190818152602001828054610142906107bb565b801561018f5780601f106101645761010080835404028352916020019161018f565b820191906000526020600020905b81548152906001019060200180831161017257829003601f168201915b50505050508152602001600182015481526020016002820160009054906101000a900460ff1615151515815250509050806040015181602001519250925050915091565b600080825111610218576040517f08c379a000000000000000000000000000000000000000000000000000000000815260040161020f90610838565b60405180910390fd5b6000826040516102289190610775565b908152602001604051809103902060020160009054906101000a900460ff1615610287576040517f08c379a000000000000000000000000000000000000000000000000000000000815260040161027e906108a4565b60405180910390fd5b6040518060600160405280838152602001428152602001600115158152506000836040516102b59190610775565b908152602001604051809103902060008201518160000190816102d89190610a70565b506020820151816001015560408201518160020160006101000a81548160ff021916908315150217905550905050816040516103149190610775565b60405180910390207fb8305c61708ab81dc0e40e9119e5d324a7f0a57ee8917c6cf8a862bff673ecc44260405161034b9190610b42565b60405180910390a260019050919050565b6060600080600080856040516103729190610775565b908152602001604051809103902060405180606001604052908160008201805461039b906107bb565b80601f01602080910402602001604051908101604052809291908181526020018280546103c7906107bb565b80156104145780601f106103e957610100808354040283529160200191610414565b820191906000526020600020905b8154815290600101906020018083116103f757829003601f168201915b50505050508152602001600182015481526020016002820160009054906101000a900460ff1615151515815250509050806000015181602001518260400151935093509350509193909250565b6000604051905090565b600080fd5b600080fd5b600080fd5b600080fd5b6000601f19601f8301169050919050565b7f4e487b7100000000000000000000000000000000000000000000000000000000600052604160045260246000fd5b6104c88261047f565b810181811067ffffffffffffffff821117156104e7576104e6610490565b5b80604052505050565b60006104fa610461565b905061050682826104bf565b919050565b600067ffffffffffffffff82111561052657610525610490565b5b61052f8261047f565b9050602081019050919050565b82818337600083830152505050565b600061055e6105598461050b565b6104f0565b90508281526020810184848401111561057a5761057961047a565b5b61058584828561053c565b509392505050565b600082601f8301126105a2576105a1610475565b5b81356105b284826020860161054b565b91505092915050565b6000602082840312156105d1576105d061046b565b5b600082013567ffffffffffffffff8111156105ef576105ee610470565b5b6105fb8482850161058d565b91505092915050565b60008115159050919050565b61061981610604565b82525050565b6000819050919050565b6106328161061f565b82525050565b600060408201905061064d6000830185610610565b61065a6020830184610629565b9392505050565b60006020820190506106766000830184610610565b92915050565b600081519050919050565b600082825260208201905092915050565b60005b838110156106b657808201518184015260208101905061069b565b60008484015250505050565b60006106cd8261067c565b6106d78185610687565b93506106e7818560208601610698565b6106f08161047f565b840191505092915050565b6000606082019050818103600083015261071581866106c2565b90506107246020830185610629565b6107316040830184610610565b949350505050565b600081905092915050565b600061074f8261067c565b6107598185610739565b9350610769818560208601610698565b80840191505092915050565b60006107818284610744565b915081905092915050565b7f4e487b7100000000000000000000000000000000000000000000000000000000600052602260045260246000fd5b600060028204905060018216806107d357607f821691505b6020821081036107e6576107e561078c565b5b50919050565b7f436572746966696361746520686173682063616e6e6f7420626520656d707479600082015250565b6000610822602083610687565b915061082d826107ec565b602082019050919050565b6000602082019050818103600083015261085181610815565b9050919050565b7f436572746966696361746520616c726561647920657869737473000000000000600082015250565b600061088e601a83610687565b915061089982610858565b602082019050919050565b600060208201905081810360008301526108bd81610881565b9050919050565b60008190508160005260206000209050919050565b60006020601f8301049050919050565b600082821b905092915050565b6000600883026109267fffffffffffffffffffffffffffffffffffffffffffffffffffffffffffffffff826108e9565b61093086836108e9565b95508019841693508086168417925050509392505050565b6000819050919050565b600061096d6109686109638461061f565b610948565b61061f565b9050919050565b6000819050919050565b61098783610952565b61099b61099382610974565b8484546108f6565b825550505050565b600090565b6109b06109a3565b6109bb81848461097e565b505050565b5b818110156109df576109d46000826109a8565b6001810190506109c1565b5050565b601f821115610a24576109f5816108c4565b6109fe846108d9565b81016020851015610a0d578190505b610a21610a19856108d9565b8301826109c0565b50505b505050565b600082821c905092915050565b6000610a4760001984600802610a29565b1980831691505092915050565b6000610a608383610a36565b9150826002028217905092915050565b610a798261067c565b67ffffffffffffffff811115610a9257610a91610490565b5b610a9c82546107bb565b610aa78282856109e3565b600060209050601f831160018114610ada5760008415610ac8578287015190505b610ad28582610a54565b865550610b3a565b601f198416610ae8866108c4565b60005b82811015610b1057848901518255600182019150602085019450602081019050610aeb565b86831015610b2d5784890151610b29601f891682610a36565b8355505b6001600288020188555050505b505050505050565b6000602082019050610b576000830184610629565b9291505056fea2646970667358221220b9fa2a1c0dbc7dd63a6ad957735e347fbc20c2c2cf2a83c1ea4832ccc00e8b5b64736f6c63430008130033",
  "linkReferences": {},
  "deployedLinkReferences": {}
}